{
  "_format": "hh-sol-artifact-1",
  "contractName": "NFTMarket",
  "sourceName": "contracts/NFTMarket.sol",
  "abi": [
    {
      "inputs": [],
      "stateMutability": "nonpayable",
      "type": "constructor"
    },
    {
      "anonymous": false,
      "inputs": [
        {
          "indexed": true,
          "internalType": "address",
          "name": "owner",
          "type": "address"
        },
        {
          "indexed": true,
          "internalType": "address",
          "name": "approved",
          "type": "address"
        },
        {
          "indexed": true,
          "internalType": "uint256",
          "name": "tokenId",
          "type": "uint256"
        }
      ],
      "name": "Approval",
      "type": "event"
    },
    {
      "anonymous": false,
      "inputs": [
        {
          "indexed": true,
          "internalType": "address",
          "name": "owner",
          "type": "address"
        },
        {
          "indexed": true,
          "internalType": "address",
          "name": "operator",
          "type": "address"
        },
        {
          "indexed": false,
          "internalType": "bool",
          "name": "approved",
          "type": "bool"
        }
      ],
      "name": "ApprovalForAll",
      "type": "event"
    },
    {
      "anonymous": false,
      "inputs": [
        {
          "indexed": false,
          "internalType": "uint256",
          "name": "tokenID",
          "type": "uint256"
        },
        {
          "indexed": false,
          "internalType": "address",
          "name": "from",
          "type": "address"
        },
        {
          "indexed": false,
          "internalType": "address",
          "name": "to",
          "type": "address"
        },
        {
          "indexed": false,
          "internalType": "string",
          "name": "tokenURI",
          "type": "string"
        },
        {
          "indexed": false,
          "internalType": "uint256",
          "name": "price",
          "type": "uint256"
        }
      ],
      "name": "NFTTransfer",
      "type": "event"
    },
    {
      "anonymous": false,
      "inputs": [
        {
          "indexed": true,
          "internalType": "address",
          "name": "previousOwner",
          "type": "address"
        },
        {
          "indexed": true,
          "internalType": "address",
          "name": "newOwner",
          "type": "address"
        }
      ],
      "name": "OwnershipTransferred",
      "type": "event"
    },
    {
      "anonymous": false,
      "inputs": [
        {
          "indexed": true,
          "internalType": "address",
          "name": "from",
          "type": "address"
        },
        {
          "indexed": true,
          "internalType": "address",
          "name": "to",
          "type": "address"
        },
        {
          "indexed": true,
          "internalType": "uint256",
          "name": "tokenId",
          "type": "uint256"
        }
      ],
      "name": "Transfer",
      "type": "event"
    },
    {
      "inputs": [
        {
          "internalType": "address",
          "name": "to",
          "type": "address"
        },
        {
          "internalType": "uint256",
          "name": "tokenId",
          "type": "uint256"
        }
      ],
      "name": "approve",
      "outputs": [],
      "stateMutability": "nonpayable",
      "type": "function"
    },
    {
      "inputs": [
        {
          "internalType": "address",
          "name": "owner",
          "type": "address"
        }
      ],
      "name": "balanceOf",
      "outputs": [
        {
          "internalType": "uint256",
          "name": "",
          "type": "uint256"
        }
      ],
      "stateMutability": "view",
      "type": "function"
    },
    {
      "inputs": [
        {
          "internalType": "uint256",
          "name": "tokenID",
          "type": "uint256"
        }
      ],
      "name": "buyNFT",
      "outputs": [],
      "stateMutability": "payable",
      "type": "function"
    },
    {
      "inputs": [
        {
          "internalType": "uint256",
          "name": "tokenID",
          "type": "uint256"
        }
      ],
      "name": "cancelListing",
      "outputs": [],
      "stateMutability": "nonpayable",
      "type": "function"
    },
    {
      "inputs": [
        {
          "internalType": "string",
          "name": "tokenURI",
          "type": "string"
        }
      ],
      "name": "createNFT",
      "outputs": [],
      "stateMutability": "nonpayable",
      "type": "function"
    },
    {
      "inputs": [
        {
          "internalType": "uint256",
          "name": "tokenId",
          "type": "uint256"
        }
      ],
      "name": "getApproved",
      "outputs": [
        {
          "internalType": "address",
          "name": "",
          "type": "address"
        }
      ],
      "stateMutability": "view",
      "type": "function"
    },
    {
      "inputs": [
        {
          "internalType": "address",
          "name": "owner",
          "type": "address"
        },
        {
          "internalType": "address",
          "name": "operator",
          "type": "address"
        }
      ],
      "name": "isApprovedForAll",
      "outputs": [
        {
          "internalType": "bool",
          "name": "",
          "type": "bool"
        }
      ],
      "stateMutability": "view",
      "type": "function"
    },
    {
      "inputs": [
        {
          "internalType": "uint256",
          "name": "tokenID",
          "type": "uint256"
        },
        {
          "internalType": "uint256",
          "name": "price",
          "type": "uint256"
        }
      ],
      "name": "listNFT",
      "outputs": [],
      "stateMutability": "nonpayable",
      "type": "function"
    },
    {
      "inputs": [],
      "name": "name",
      "outputs": [
        {
          "internalType": "string",
          "name": "",
          "type": "string"
        }
      ],
      "stateMutability": "view",
      "type": "function"
    },
    {
      "inputs": [],
      "name": "owner",
      "outputs": [
        {
          "internalType": "address",
          "name": "",
          "type": "address"
        }
      ],
      "stateMutability": "view",
      "type": "function"
    },
    {
      "inputs": [
        {
          "internalType": "uint256",
          "name": "tokenId",
          "type": "uint256"
        }
      ],
      "name": "ownerOf",
      "outputs": [
        {
          "internalType": "address",
          "name": "",
          "type": "address"
        }
      ],
      "stateMutability": "view",
      "type": "function"
    },
    {
      "inputs": [],
      "name": "renounceOwnership",
      "outputs": [],
      "stateMutability": "nonpayable",
      "type": "function"
    },
    {
      "inputs": [
        {
          "internalType": "address",
          "name": "from",
          "type": "address"
        },
        {
          "internalType": "address",
          "name": "to",
          "type": "address"
        },
        {
          "internalType": "uint256",
          "name": "tokenId",
          "type": "uint256"
        }
      ],
      "name": "safeTransferFrom",
      "outputs": [],
      "stateMutability": "nonpayable",
      "type": "function"
    },
    {
      "inputs": [
        {
          "internalType": "address",
          "name": "from",
          "type": "address"
        },
        {
          "internalType": "address",
          "name": "to",
          "type": "address"
        },
        {
          "internalType": "uint256",
          "name": "tokenId",
          "type": "uint256"
        },
        {
          "internalType": "bytes",
          "name": "_data",
          "type": "bytes"
        }
      ],
      "name": "safeTransferFrom",
      "outputs": [],
      "stateMutability": "nonpayable",
      "type": "function"
    },
    {
      "inputs": [
        {
          "internalType": "address",
          "name": "operator",
          "type": "address"
        },
        {
          "internalType": "bool",
          "name": "approved",
          "type": "bool"
        }
      ],
      "name": "setApprovalForAll",
      "outputs": [],
      "stateMutability": "nonpayable",
      "type": "function"
    },
    {
      "inputs": [
        {
          "internalType": "bytes4",
          "name": "interfaceId",
          "type": "bytes4"
        }
      ],
      "name": "supportsInterface",
      "outputs": [
        {
          "internalType": "bool",
          "name": "",
          "type": "bool"
        }
      ],
      "stateMutability": "view",
      "type": "function"
    },
    {
      "inputs": [],
      "name": "symbol",
      "outputs": [
        {
          "internalType": "string",
          "name": "",
          "type": "string"
        }
      ],
      "stateMutability": "view",
      "type": "function"
    },
    {
      "inputs": [
        {
          "internalType": "uint256",
          "name": "tokenId",
          "type": "uint256"
        }
      ],
      "name": "tokenURI",
      "outputs": [
        {
          "internalType": "string",
          "name": "",
          "type": "string"
        }
      ],
      "stateMutability": "view",
      "type": "function"
    },
    {
      "inputs": [
        {
          "internalType": "address",
          "name": "from",
          "type": "address"
        },
        {
          "internalType": "address",
          "name": "to",
          "type": "address"
        },
        {
          "internalType": "uint256",
          "name": "tokenId",
          "type": "uint256"
        }
      ],
      "name": "transferFrom",
      "outputs": [],
      "stateMutability": "nonpayable",
      "type": "function"
    },
    {
      "inputs": [
        {
          "internalType": "address",
          "name": "newOwner",
          "type": "address"
        }
      ],
      "name": "transferOwnership",
      "outputs": [],
      "stateMutability": "nonpayable",
      "type": "function"
    },
    {
      "inputs": [],
      "name": "withdrawFunds",
      "outputs": [],
      "stateMutability": "nonpayable",
      "type": "function"
    }
  ],
  "bytecode": "0x60806040526001600a60006101000a81548160ff0219169083151502179055503480156200002c57600080fd5b506040518060400160405280600c81526020017f4162646f752773204e46547300000000000000000000000000000000000000008152506040518060400160405280600481526020017f414e4654000000000000000000000000000000000000000000000000000000008152508160009080519060200190620000b1929190620001c1565b508060019080519060200190620000ca929190620001c1565b505050620000ed620000e1620000f360201b60201c565b620000fb60201b60201c565b620002d6565b600033905090565b6000600760009054906101000a900473ffffffffffffffffffffffffffffffffffffffff16905081600760006101000a81548173ffffffffffffffffffffffffffffffffffffffff021916908373ffffffffffffffffffffffffffffffffffffffff1602179055508173ffffffffffffffffffffffffffffffffffffffff168173ffffffffffffffffffffffffffffffffffffffff167f8be0079c531659141344cd1fd0a4f28419497f9722a3daafe3b4186f6b6457e060405160405180910390a35050565b828054620001cf90620002a0565b90600052602060002090601f016020900481019282620001f357600085556200023f565b82601f106200020e57805160ff19168380011785556200023f565b828001600101855582156200023f579182015b828111156200023e57825182559160200191906001019062000221565b5b5090506200024e919062000252565b5090565b5b808211156200026d57600081600090555060010162000253565b5090565b7f4e487b7100000000000000000000000000000000000000000000000000000000600052602260045260246000fd5b60006002820490506001821680620002b957607f821691505b60208210811415620002d057620002cf62000271565b5b50919050565b61402180620002e66000396000f3fe60806040526004361061012a5760003560e01c806370a08231116100ab578063a22cb4651161006f578063a22cb465146103bb578063b88d4fde146103e4578063c87b56dd1461040d578063da2ed03e1461044a578063e985e9c514610473578063f2fde38b146104b05761012a565b806370a08231146102e8578063715018a6146103255780638da5cb5b1461033c57806394383f141461036757806395d89b41146103905761012a565b806324600fc3116100f257806324600fc314610226578063305a67a81461023d57806342842e0e1461026657806351ed82881461028f5780636352211e146102ab5761012a565b806301ffc9a71461012f57806306fdde031461016c578063081812fc14610197578063095ea7b3146101d457806323b872dd146101fd575b600080fd5b34801561013b57600080fd5b5061015660048036038101906101519190612757565b6104d9565b604051610163919061279f565b60405180910390f35b34801561017857600080fd5b506101816105bb565b60405161018e9190612853565b60405180910390f35b3480156101a357600080fd5b506101be60048036038101906101b991906128ab565b61064d565b6040516101cb9190612919565b60405180910390f35b3480156101e057600080fd5b506101fb60048036038101906101f69190612960565b6106d2565b005b34801561020957600080fd5b50610224600480360381019061021f91906129a0565b6107ea565b005b34801561023257600080fd5b5061023b61084a565b005b34801561024957600080fd5b50610264600480360381019061025f91906128ab565b6109e4565b005b34801561027257600080fd5b5061028d600480360381019061028891906129a0565b610bfa565b005b6102a960048036038101906102a491906128ab565b610c1a565b005b3480156102b757600080fd5b506102d260048036038101906102cd91906128ab565b610e79565b6040516102df9190612919565b60405180910390f35b3480156102f457600080fd5b5061030f600480360381019061030a91906129f3565b610f2b565b60405161031c9190612a2f565b60405180910390f35b34801561033157600080fd5b5061033a610fe3565b005b34801561034857600080fd5b5061035161106b565b60405161035e9190612919565b60405180910390f35b34801561037357600080fd5b5061038e60048036038101906103899190612a4a565b611095565b005b34801561039c57600080fd5b506103a56112b1565b6040516103b29190612853565b60405180910390f35b3480156103c757600080fd5b506103e260048036038101906103dd9190612ab6565b611343565b005b3480156103f057600080fd5b5061040b60048036038101906104069190612c2b565b611359565b005b34801561041957600080fd5b50610434600480360381019061042f91906128ab565b6113bb565b6040516104419190612853565b60405180910390f35b34801561045657600080fd5b50610471600480360381019061046c9190612d0e565b61150d565b005b34801561047f57600080fd5b5061049a60048036038101906104959190612d5b565b61164a565b6040516104a7919061279f565b60405180910390f35b3480156104bc57600080fd5b506104d760048036038101906104d291906129f3565b6116de565b005b60007f80ac58cd000000000000000000000000000000000000000000000000000000007bffffffffffffffffffffffffffffffffffffffffffffffffffffffff1916827bffffffffffffffffffffffffffffffffffffffffffffffffffffffff191614806105a457507f5b5e139f000000000000000000000000000000000000000000000000000000007bffffffffffffffffffffffffffffffffffffffffffffffffffffffff1916827bffffffffffffffffffffffffffffffffffffffffffffffffffffffff1916145b806105b457506105b3826117d6565b5b9050919050565b6060600080546105ca90612dca565b80601f01602080910402602001604051908101604052809291908181526020018280546105f690612dca565b80156106435780601f1061061857610100808354040283529160200191610643565b820191906000526020600020905b81548152906001019060200180831161062657829003601f168201915b5050505050905090565b600061065882611840565b610697576040517f08c379a000000000000000000000000000000000000000000000000000000000815260040161068e90612e6e565b60405180910390fd5b6004600083815260200190815260200160002060009054906101000a900473ffffffffffffffffffffffffffffffffffffffff169050919050565b60006106dd82610e79565b90508073ffffffffffffffffffffffffffffffffffffffff168373ffffffffffffffffffffffffffffffffffffffff16141561074e576040517f08c379a000000000000000000000000000000000000000000000000000000000815260040161074590612f00565b60405180910390fd5b8073ffffffffffffffffffffffffffffffffffffffff1661076d6118ac565b73ffffffffffffffffffffffffffffffffffffffff16148061079c575061079b816107966118ac565b61164a565b5b6107db576040517f08c379a00000000000000000000000000000000000000000000000000000000081526004016107d290612f92565b60405180910390fd5b6107e583836118b4565b505050565b6107fb6107f56118ac565b8261196d565b61083a576040517f08c379a000000000000000000000000000000000000000000000000000000000815260040161083190613024565b60405180910390fd5b610845838383611a4b565b505050565b6108526118ac565b73ffffffffffffffffffffffffffffffffffffffff1661087061106b565b73ffffffffffffffffffffffffffffffffffffffff16146108c6576040517f08c379a00000000000000000000000000000000000000000000000000000000081526004016108bd90613090565b60405180910390fd5b600a60009054906101000a900460ff16610915576040517f08c379a000000000000000000000000000000000000000000000000000000000815260040161090c906130fc565b60405180910390fd5b6000600a60006101000a81548160ff021916908315150217905550600047905060008111610978576040517f08c379a000000000000000000000000000000000000000000000000000000000815260040161096f90613168565b60405180910390fd5b61098061106b565b73ffffffffffffffffffffffffffffffffffffffff166108fc829081150290604051600060405180830381858888f193505050501580156109c5573d6000803e3d6000fd5b50506001600a60006101000a81548160ff021916908315150217905550565b600a60009054906101000a900460ff16610a33576040517f08c379a0000000000000000000000000000000000000000000000000000000008152600401610a2a906130fc565b60405180910390fd5b6000600a60006101000a81548160ff021916908315150217905550600060096000838152602001908152602001600020604051806040016040529081600082015481526020016001820160009054906101000a900473ffffffffffffffffffffffffffffffffffffffff1673ffffffffffffffffffffffffffffffffffffffff1673ffffffffffffffffffffffffffffffffffffffff168152505090506000816000015111610b17576040517f08c379a0000000000000000000000000000000000000000000000000000000008152600401610b0e906131fa565b60405180910390fd5b3373ffffffffffffffffffffffffffffffffffffffff16816020015173ffffffffffffffffffffffffffffffffffffffff1614610b89576040517f08c379a0000000000000000000000000000000000000000000000000000000008152600401610b8090613266565b60405180910390fd5b610b94303384611a4b565b610b9d82611ca7565b7f705332a8918666802fc1504f63ff1f002a5f6cedd30d59ad7ae0b5281aeb8dca8230336000604051610bd394939291906132f1565b60405180910390a1506001600a60006101000a81548160ff02191690831515021790555050565b610c1583838360405180602001604052806000815250611359565b505050565b600a60009054906101000a900460ff16610c69576040517f08c379a0000000000000000000000000000000000000000000000000000000008152600401610c60906130fc565b60405180910390fd5b6000600a60006101000a81548160ff021916908315150217905550600060096000838152602001908152602001600020604051806040016040529081600082015481526020016001820160009054906101000a900473ffffffffffffffffffffffffffffffffffffffff1673ffffffffffffffffffffffffffffffffffffffff1673ffffffffffffffffffffffffffffffffffffffff168152505090506000816000015111610d4d576040517f08c379a0000000000000000000000000000000000000000000000000000000008152600401610d44906131fa565b60405180910390fd5b80600001513414610d93576040517f08c379a0000000000000000000000000000000000000000000000000000000008152600401610d8a90613395565b60405180910390fd5b610d9e303384611a4b565b610da782611ca7565b806020015173ffffffffffffffffffffffffffffffffffffffff166108fc610df06064610de2605f8660000151611cef90919063ffffffff16565b611d0590919063ffffffff16565b9081150290604051600060405180830381858888f19350505050158015610e1b573d6000803e3d6000fd5b507f705332a8918666802fc1504f63ff1f002a5f6cedd30d59ad7ae0b5281aeb8dca8230336000604051610e5294939291906132f1565b60405180910390a1506001600a60006101000a81548160ff02191690831515021790555050565b6000806002600084815260200190815260200160002060009054906101000a900473ffffffffffffffffffffffffffffffffffffffff169050600073ffffffffffffffffffffffffffffffffffffffff168173ffffffffffffffffffffffffffffffffffffffff161415610f22576040517f08c379a0000000000000000000000000000000000000000000000000000000008152600401610f1990613427565b60405180910390fd5b80915050919050565b60008073ffffffffffffffffffffffffffffffffffffffff168273ffffffffffffffffffffffffffffffffffffffff161415610f9c576040517f08c379a0000000000000000000000000000000000000000000000000000000008152600401610f93906134b9565b60405180910390fd5b600360008373ffffffffffffffffffffffffffffffffffffffff1673ffffffffffffffffffffffffffffffffffffffff168152602001908152602001600020549050919050565b610feb6118ac565b73ffffffffffffffffffffffffffffffffffffffff1661100961106b565b73ffffffffffffffffffffffffffffffffffffffff161461105f576040517f08c379a000000000000000000000000000000000000000000000000000000000815260040161105690613090565b60405180910390fd5b6110696000611d1b565b565b6000600760009054906101000a900473ffffffffffffffffffffffffffffffffffffffff16905090565b600a60009054906101000a900460ff166110e4576040517f08c379a00000000000000000000000000000000000000000000000000000000081526004016110db906130fc565b60405180910390fd5b6000600a60006101000a81548160ff02191690831515021790555060008111611142576040517f08c379a00000000000000000000000000000000000000000000000000000000081526004016111399061354b565b60405180910390fd5b3373ffffffffffffffffffffffffffffffffffffffff1661116283610e79565b73ffffffffffffffffffffffffffffffffffffffff16146111b8576040517f08c379a00000000000000000000000000000000000000000000000000000000081526004016111af906135b7565b60405180910390fd5b6111c3333084611a4b565b60405180604001604052808281526020013373ffffffffffffffffffffffffffffffffffffffff16815250600960008481526020019081526020016000206000820151816000015560208201518160010160006101000a81548173ffffffffffffffffffffffffffffffffffffffff021916908373ffffffffffffffffffffffffffffffffffffffff1602179055509050507f705332a8918666802fc1504f63ff1f002a5f6cedd30d59ad7ae0b5281aeb8dca8233308460405161128a94939291906135d7565b60405180910390a16001600a60006101000a81548160ff0219169083151502179055505050565b6060600180546112c090612dca565b80601f01602080910402602001604051908101604052809291908181526020018280546112ec90612dca565b80156113395780601f1061130e57610100808354040283529160200191611339565b820191906000526020600020905b81548152906001019060200180831161131c57829003601f168201915b5050505050905090565b61135561134e6118ac565b8383611de1565b5050565b61136a6113646118ac565b8361196d565b6113a9576040517f08c379a00000000000000000000000000000000000000000000000000000000081526004016113a090613024565b60405180910390fd5b6113b584848484611f4e565b50505050565b60606113c682611840565b611405576040517f08c379a00000000000000000000000000000000000000000000000000000000081526004016113fc906136a1565b60405180910390fd5b600060066000848152602001908152602001600020805461142590612dca565b80601f016020809104026020016040519081016040528092919081815260200182805461145190612dca565b801561149e5780601f106114735761010080835404028352916020019161149e565b820191906000526020600020905b81548152906001019060200180831161148157829003601f168201915b5050505050905060006114af611faa565b90506000815114156114c5578192505050611508565b6000825111156114fa5780826040516020016114e29291906136fd565b60405160208183030381529060405292505050611508565b61150384611fc1565b925050505b919050565b600a60009054906101000a900460ff1661155c576040517f08c379a0000000000000000000000000000000000000000000000000000000008152600401611553906130fc565b60405180910390fd5b6000600a60006101000a81548160ff0219169083151502179055506115816008612068565b600061158d600861207e565b9050611599338261208c565b6115e78184848080601f016020809104026020016040519081016040528093929190818152602001838380828437600081840152601f19601f820116905080830192505050505050506120aa565b7f705332a8918666802fc1504f63ff1f002a5f6cedd30d59ad7ae0b5281aeb8dca81600033868660006040516116229695949392919061374e565b60405180910390a1506001600a60006101000a81548160ff0219169083151502179055505050565b6000600560008473ffffffffffffffffffffffffffffffffffffffff1673ffffffffffffffffffffffffffffffffffffffff16815260200190815260200160002060008373ffffffffffffffffffffffffffffffffffffffff1673ffffffffffffffffffffffffffffffffffffffff16815260200190815260200160002060009054906101000a900460ff16905092915050565b6116e66118ac565b73ffffffffffffffffffffffffffffffffffffffff1661170461106b565b73ffffffffffffffffffffffffffffffffffffffff161461175a576040517f08c379a000000000000000000000000000000000000000000000000000000000815260040161175190613090565b60405180910390fd5b600073ffffffffffffffffffffffffffffffffffffffff168173ffffffffffffffffffffffffffffffffffffffff1614156117ca576040517f08c379a00000000000000000000000000000000000000000000000000000000081526004016117c19061381c565b60405180910390fd5b6117d381611d1b565b50565b60007f01ffc9a7000000000000000000000000000000000000000000000000000000007bffffffffffffffffffffffffffffffffffffffffffffffffffffffff1916827bffffffffffffffffffffffffffffffffffffffffffffffffffffffff1916149050919050565b60008073ffffffffffffffffffffffffffffffffffffffff166002600084815260200190815260200160002060009054906101000a900473ffffffffffffffffffffffffffffffffffffffff1673ffffffffffffffffffffffffffffffffffffffff1614159050919050565b600033905090565b816004600083815260200190815260200160002060006101000a81548173ffffffffffffffffffffffffffffffffffffffff021916908373ffffffffffffffffffffffffffffffffffffffff160217905550808273ffffffffffffffffffffffffffffffffffffffff1661192783610e79565b73ffffffffffffffffffffffffffffffffffffffff167f8c5be1e5ebec7d5bd14f71427d1e84f3dd0314c0f7b2291e5b200ac8c7c3b92560405160405180910390a45050565b600061197882611840565b6119b7576040517f08c379a00000000000000000000000000000000000000000000000000000000081526004016119ae906138ae565b60405180910390fd5b60006119c283610e79565b90508073ffffffffffffffffffffffffffffffffffffffff168473ffffffffffffffffffffffffffffffffffffffff161480611a3157508373ffffffffffffffffffffffffffffffffffffffff16611a198461064d565b73ffffffffffffffffffffffffffffffffffffffff16145b80611a425750611a41818561164a565b5b91505092915050565b8273ffffffffffffffffffffffffffffffffffffffff16611a6b82610e79565b73ffffffffffffffffffffffffffffffffffffffff1614611ac1576040517f08c379a0000000000000000000000000000000000000000000000000000000008152600401611ab890613940565b60405180910390fd5b600073ffffffffffffffffffffffffffffffffffffffff168273ffffffffffffffffffffffffffffffffffffffff161415611b31576040517f08c379a0000000000000000000000000000000000000000000000000000000008152600401611b28906139d2565b60405180910390fd5b611b3c83838361211e565b611b476000826118b4565b6001600360008573ffffffffffffffffffffffffffffffffffffffff1673ffffffffffffffffffffffffffffffffffffffff1681526020019081526020016000206000828254611b979190613a21565b925050819055506001600360008473ffffffffffffffffffffffffffffffffffffffff1673ffffffffffffffffffffffffffffffffffffffff1681526020019081526020016000206000828254611bee9190613a55565b92505081905550816002600083815260200190815260200160002060006101000a81548173ffffffffffffffffffffffffffffffffffffffff021916908373ffffffffffffffffffffffffffffffffffffffff160217905550808273ffffffffffffffffffffffffffffffffffffffff168473ffffffffffffffffffffffffffffffffffffffff167fddf252ad1be2c89b69c2b068fc378daa952ba7f163c4a11628f55a4df523b3ef60405160405180910390a4505050565b600960008281526020019081526020016000206000808201600090556001820160006101000a81549073ffffffffffffffffffffffffffffffffffffffff0219169055505050565b60008183611cfd9190613aab565b905092915050565b60008183611d139190613b34565b905092915050565b6000600760009054906101000a900473ffffffffffffffffffffffffffffffffffffffff16905081600760006101000a81548173ffffffffffffffffffffffffffffffffffffffff021916908373ffffffffffffffffffffffffffffffffffffffff1602179055508173ffffffffffffffffffffffffffffffffffffffff168173ffffffffffffffffffffffffffffffffffffffff167f8be0079c531659141344cd1fd0a4f28419497f9722a3daafe3b4186f6b6457e060405160405180910390a35050565b8173ffffffffffffffffffffffffffffffffffffffff168373ffffffffffffffffffffffffffffffffffffffff161415611e50576040517f08c379a0000000000000000000000000000000000000000000000000000000008152600401611e4790613bb1565b60405180910390fd5b80600560008573ffffffffffffffffffffffffffffffffffffffff1673ffffffffffffffffffffffffffffffffffffffff16815260200190815260200160002060008473ffffffffffffffffffffffffffffffffffffffff1673ffffffffffffffffffffffffffffffffffffffff16815260200190815260200160002060006101000a81548160ff0219169083151502179055508173ffffffffffffffffffffffffffffffffffffffff168373ffffffffffffffffffffffffffffffffffffffff167f17307eab39ab6107e8899845ad3d59bd9653f200f220920489ca2b5937696c3183604051611f41919061279f565b60405180910390a3505050565b611f59848484611a4b565b611f6584848484612123565b611fa4576040517f08c379a0000000000000000000000000000000000000000000000000000000008152600401611f9b90613c43565b60405180910390fd5b50505050565b606060405180602001604052806000815250905090565b6060611fcc82611840565b61200b576040517f08c379a000000000000000000000000000000000000000000000000000000000815260040161200290613cd5565b60405180910390fd5b6000612015611faa565b905060008151116120355760405180602001604052806000815250612060565b8061203f846122ab565b6040516020016120509291906136fd565b6040516020818303038152906040525b915050919050565b6001816000016000828254019250508190555050565b600081600001549050919050565b6120a682826040518060200160405280600081525061240c565b5050565b6120b382611840565b6120f2576040517f08c379a00000000000000000000000000000000000000000000000000000000081526004016120e990613d67565b60405180910390fd5b80600660008481526020019081526020016000209080519060200190612119929190612648565b505050565b505050565b60006121448473ffffffffffffffffffffffffffffffffffffffff16612467565b1561229e578373ffffffffffffffffffffffffffffffffffffffff1663150b7a0261216d6118ac565b8786866040518563ffffffff1660e01b815260040161218f9493929190613ddc565b6020604051808303816000875af19250505080156121cb57506040513d601f19601f820116820180604052508101906121c89190613e3d565b60015b61224e573d80600081146121fb576040519150601f19603f3d011682016040523d82523d6000602084013e612200565b606091505b50600081511415612246576040517f08c379a000000000000000000000000000000000000000000000000000000000815260040161223d90613c43565b60405180910390fd5b805181602001fd5b63150b7a0260e01b7bffffffffffffffffffffffffffffffffffffffffffffffffffffffff1916817bffffffffffffffffffffffffffffffffffffffffffffffffffffffff1916149150506122a3565b600190505b949350505050565b606060008214156122f3576040518060400160405280600181526020017f30000000000000000000000000000000000000000000000000000000000000008152509050612407565b600082905060005b6000821461232557808061230e90613e6a565b915050600a8261231e9190613b34565b91506122fb565b60008167ffffffffffffffff81111561234157612340612b00565b5b6040519080825280601f01601f1916602001820160405280156123735781602001600182028036833780820191505090505b5090505b600085146124005760018261238c9190613a21565b9150600a8561239b9190613eb3565b60306123a79190613a55565b60f81b8183815181106123bd576123bc613ee4565b5b60200101907effffffffffffffffffffffffffffffffffffffffffffffffffffffffffffff1916908160001a905350600a856123f99190613b34565b9450612377565b8093505050505b919050565b612416838361247a565b6124236000848484612123565b612462576040517f08c379a000000000000000000000000000000000000000000000000000000000815260040161245990613c43565b60405180910390fd5b505050565b600080823b905060008111915050919050565b600073ffffffffffffffffffffffffffffffffffffffff168273ffffffffffffffffffffffffffffffffffffffff1614156124ea576040517f08c379a00000000000000000000000000000000000000000000000000000000081526004016124e190613f5f565b60405180910390fd5b6124f381611840565b15612533576040517f08c379a000000000000000000000000000000000000000000000000000000000815260040161252a90613fcb565b60405180910390fd5b61253f6000838361211e565b6001600360008473ffffffffffffffffffffffffffffffffffffffff1673ffffffffffffffffffffffffffffffffffffffff168152602001908152602001600020600082825461258f9190613a55565b92505081905550816002600083815260200190815260200160002060006101000a81548173ffffffffffffffffffffffffffffffffffffffff021916908373ffffffffffffffffffffffffffffffffffffffff160217905550808273ffffffffffffffffffffffffffffffffffffffff16600073ffffffffffffffffffffffffffffffffffffffff167fddf252ad1be2c89b69c2b068fc378daa952ba7f163c4a11628f55a4df523b3ef60405160405180910390a45050565b82805461265490612dca565b90600052602060002090601f01602090048101928261267657600085556126bd565b82601f1061268f57805160ff19168380011785556126bd565b828001600101855582156126bd579182015b828111156126bc5782518255916020019190600101906126a1565b5b5090506126ca91906126ce565b5090565b5b808211156126e75760008160009055506001016126cf565b5090565b6000604051905090565b600080fd5b600080fd5b60007fffffffff0000000000000000000000000000000000000000000000000000000082169050919050565b612734816126ff565b811461273f57600080fd5b50565b6000813590506127518161272b565b92915050565b60006020828403121561276d5761276c6126f5565b5b600061277b84828501612742565b91505092915050565b60008115159050919050565b61279981612784565b82525050565b60006020820190506127b46000830184612790565b92915050565b600081519050919050565b600082825260208201905092915050565b60005b838110156127f45780820151818401526020810190506127d9565b83811115612803576000848401525b50505050565b6000601f19601f8301169050919050565b6000612825826127ba565b61282f81856127c5565b935061283f8185602086016127d6565b61284881612809565b840191505092915050565b6000602082019050818103600083015261286d818461281a565b905092915050565b6000819050919050565b61288881612875565b811461289357600080fd5b50565b6000813590506128a58161287f565b92915050565b6000602082840312156128c1576128c06126f5565b5b60006128cf84828501612896565b91505092915050565b600073ffffffffffffffffffffffffffffffffffffffff82169050919050565b6000612903826128d8565b9050919050565b612913816128f8565b82525050565b600060208201905061292e600083018461290a565b92915050565b61293d816128f8565b811461294857600080fd5b50565b60008135905061295a81612934565b92915050565b60008060408385031215612977576129766126f5565b5b60006129858582860161294b565b925050602061299685828601612896565b9150509250929050565b6000806000606084860312156129b9576129b86126f5565b5b60006129c78682870161294b565b93505060206129d88682870161294b565b92505060406129e986828701612896565b9150509250925092565b600060208284031215612a0957612a086126f5565b5b6000612a178482850161294b565b91505092915050565b612a2981612875565b82525050565b6000602082019050612a446000830184612a20565b92915050565b60008060408385031215612a6157612a606126f5565b5b6000612a6f85828601612896565b9250506020612a8085828601612896565b9150509250929050565b612a9381612784565b8114612a9e57600080fd5b50565b600081359050612ab081612a8a565b92915050565b60008060408385031215612acd57612acc6126f5565b5b6000612adb8582860161294b565b9250506020612aec85828601612aa1565b9150509250929050565b600080fd5b600080fd5b7f4e487b7100000000000000000000000000000000000000000000000000000000600052604160045260246000fd5b612b3882612809565b810181811067ffffffffffffffff82111715612b5757612b56612b00565b5b80604052505050565b6000612b6a6126eb565b9050612b768282612b2f565b919050565b600067ffffffffffffffff821115612b9657612b95612b00565b5b612b9f82612809565b9050602081019050919050565b82818337600083830152505050565b6000612bce612bc984612b7b565b612b60565b905082815260208101848484011115612bea57612be9612afb565b5b612bf5848285612bac565b509392505050565b600082601f830112612c1257612c11612af6565b5b8135612c22848260208601612bbb565b91505092915050565b60008060008060808587031215612c4557612c446126f5565b5b6000612c538782880161294b565b9450506020612c648782880161294b565b9350506040612c7587828801612896565b925050606085013567ffffffffffffffff811115612c9657612c956126fa565b5b612ca287828801612bfd565b91505092959194509250565b600080fd5b600080fd5b60008083601f840112612cce57612ccd612af6565b5b8235905067ffffffffffffffff811115612ceb57612cea612cae565b5b602083019150836001820283011115612d0757612d06612cb3565b5b9250929050565b60008060208385031215612d2557612d246126f5565b5b600083013567ffffffffffffffff811115612d4357612d426126fa565b5b612d4f85828601612cb8565b92509250509250929050565b60008060408385031215612d7257612d716126f5565b5b6000612d808582860161294b565b9250506020612d918582860161294b565b9150509250929050565b7f4e487b7100000000000000000000000000000000000000000000000000000000600052602260045260246000fd5b60006002820490506001821680612de257607f821691505b60208210811415612df657612df5612d9b565b5b50919050565b7f4552433732313a20617070726f76656420717565727920666f72206e6f6e657860008201527f697374656e7420746f6b656e0000000000000000000000000000000000000000602082015250565b6000612e58602c836127c5565b9150612e6382612dfc565b604082019050919050565b60006020820190508181036000830152612e8781612e4b565b9050919050565b7f4552433732313a20617070726f76616c20746f2063757272656e74206f776e6560008201527f7200000000000000000000000000000000000000000000000000000000000000602082015250565b6000612eea6021836127c5565b9150612ef582612e8e565b604082019050919050565b60006020820190508181036000830152612f1981612edd565b9050919050565b7f4552433732313a20617070726f76652063616c6c6572206973206e6f74206f7760008201527f6e6572206e6f7220617070726f76656420666f7220616c6c0000000000000000602082015250565b6000612f7c6038836127c5565b9150612f8782612f20565b604082019050919050565b60006020820190508181036000830152612fab81612f6f565b9050919050565b7f4552433732313a207472616e736665722063616c6c6572206973206e6f74206f60008201527f776e6572206e6f7220617070726f766564000000000000000000000000000000602082015250565b600061300e6031836127c5565b915061301982612fb2565b604082019050919050565b6000602082019050818103600083015261303d81613001565b9050919050565b7f4f776e61626c653a2063616c6c6572206973206e6f7420746865206f776e6572600082015250565b600061307a6020836127c5565b915061308582613044565b602082019050919050565b600060208201905081810360008301526130a98161306d565b9050919050565b7f5265656e7472616e637920677561726400000000000000000000000000000000600082015250565b60006130e66010836127c5565b91506130f1826130b0565b602082019050919050565b60006020820190508181036000830152613115816130d9565b9050919050565b7f4e46544d61726b65743a2062616c616e6365206973207a65726f000000000000600082015250565b6000613152601a836127c5565b915061315d8261311c565b602082019050919050565b6000602082019050818103600083015261318181613145565b9050919050565b7f4e46544d61726b65743a206e6674206e6f74206c697374656420666f7220736160008201527f6c65000000000000000000000000000000000000000000000000000000000000602082015250565b60006131e46022836127c5565b91506131ef82613188565b604082019050919050565b60006020820190508181036000830152613213816131d7565b9050919050565b7f4e46544d61726b65743a20796f75277265206e6f74207468652073656c6c6572600082015250565b60006132506020836127c5565b915061325b8261321a565b602082019050919050565b6000602082019050818103600083015261327f81613243565b9050919050565b50565b60006132966000836127c5565b91506132a182613286565b600082019050919050565b6000819050919050565b6000819050919050565b60006132db6132d66132d1846132ac565b6132b6565b612875565b9050919050565b6132eb816132c0565b82525050565b600060a0820190506133066000830187612a20565b613313602083018661290a565b613320604083018561290a565b818103606083015261333181613289565b905061334060808301846132e2565b95945050505050565b7f4e46544d61726b65743a20696e636f7272656374207072696365000000000000600082015250565b600061337f601a836127c5565b915061338a82613349565b602082019050919050565b600060208201905081810360008301526133ae81613372565b9050919050565b7f4552433732313a206f776e657220717565727920666f72206e6f6e657869737460008201527f656e7420746f6b656e0000000000000000000000000000000000000000000000602082015250565b60006134116029836127c5565b915061341c826133b5565b604082019050919050565b6000602082019050818103600083015261344081613404565b9050919050565b7f4552433732313a2062616c616e636520717565727920666f7220746865207a6560008201527f726f206164647265737300000000000000000000000000000000000000000000602082015250565b60006134a3602a836127c5565b91506134ae82613447565b604082019050919050565b600060208201905081810360008301526134d281613496565b9050919050565b7f4e46544d61726b65743a207072696365206d757374206265206772656174657260008201527f207468616e203000000000000000000000000000000000000000000000000000602082015250565b60006135356027836127c5565b9150613540826134d9565b604082019050919050565b6000602082019050818103600083015261356481613528565b9050919050565b7f4e46544d61726b65743a20796f75277265206e6f7420746865206f776e657200600082015250565b60006135a1601f836127c5565b91506135ac8261356b565b602082019050919050565b600060208201905081810360008301526135d081613594565b9050919050565b600060a0820190506135ec6000830187612a20565b6135f9602083018661290a565b613606604083018561290a565b818103606083015261361781613289565b90506136266080830184612a20565b95945050505050565b7f45524337323155524953746f726167653a2055524920717565727920666f722060008201527f6e6f6e6578697374656e7420746f6b656e000000000000000000000000000000602082015250565b600061368b6031836127c5565b91506136968261362f565b604082019050919050565b600060208201905081810360008301526136ba8161367e565b9050919050565b600081905092915050565b60006136d7826127ba565b6136e181856136c1565b93506136f18185602086016127d6565b80840191505092915050565b600061370982856136cc565b915061371582846136cc565b91508190509392505050565b600061372d83856127c5565b935061373a838584612bac565b61374383612809565b840190509392505050565b600060a0820190506137636000830189612a20565b613770602083018861290a565b61377d604083018761290a565b8181036060830152613790818587613721565b905061379f60808301846132e2565b979650505050505050565b7f4f776e61626c653a206e6577206f776e657220697320746865207a65726f206160008201527f6464726573730000000000000000000000000000000000000000000000000000602082015250565b60006138066026836127c5565b9150613811826137aa565b604082019050919050565b60006020820190508181036000830152613835816137f9565b9050919050565b7f4552433732313a206f70657261746f7220717565727920666f72206e6f6e657860008201527f697374656e7420746f6b656e0000000000000000000000000000000000000000602082015250565b6000613898602c836127c5565b91506138a38261383c565b604082019050919050565b600060208201905081810360008301526138c78161388b565b9050919050565b7f4552433732313a207472616e73666572206f6620746f6b656e2074686174206960008201527f73206e6f74206f776e0000000000000000000000000000000000000000000000602082015250565b600061392a6029836127c5565b9150613935826138ce565b604082019050919050565b600060208201905081810360008301526139598161391d565b9050919050565b7f4552433732313a207472616e7366657220746f20746865207a65726f2061646460008201527f7265737300000000000000000000000000000000000000000000000000000000602082015250565b60006139bc6024836127c5565b91506139c782613960565b604082019050919050565b600060208201905081810360008301526139eb816139af565b9050919050565b7f4e487b7100000000000000000000000000000000000000000000000000000000600052601160045260246000fd5b6000613a2c82612875565b9150613a3783612875565b925082821015613a4a57613a496139f2565b5b828203905092915050565b6000613a6082612875565b9150613a6b83612875565b9250827fffffffffffffffffffffffffffffffffffffffffffffffffffffffffffffffff03821115613aa057613a9f6139f2565b5b828201905092915050565b6000613ab682612875565b9150613ac183612875565b9250817fffffffffffffffffffffffffffffffffffffffffffffffffffffffffffffffff0483118215151615613afa57613af96139f2565b5b828202905092915050565b7f4e487b7100000000000000000000000000000000000000000000000000000000600052601260045260246000fd5b6000613b3f82612875565b9150613b4a83612875565b925082613b5a57613b59613b05565b5b828204905092915050565b7f4552433732313a20617070726f766520746f2063616c6c657200000000000000600082015250565b6000613b9b6019836127c5565b9150613ba682613b65565b602082019050919050565b60006020820190508181036000830152613bca81613b8e565b9050919050565b7f4552433732313a207472616e7366657220746f206e6f6e20455243373231526560008201527f63656976657220696d706c656d656e7465720000000000000000000000000000602082015250565b6000613c2d6032836127c5565b9150613c3882613bd1565b604082019050919050565b60006020820190508181036000830152613c5c81613c20565b9050919050565b7f4552433732314d657461646174613a2055524920717565727920666f72206e6f60008201527f6e6578697374656e7420746f6b656e0000000000000000000000000000000000602082015250565b6000613cbf602f836127c5565b9150613cca82613c63565b604082019050919050565b60006020820190508181036000830152613cee81613cb2565b9050919050565b7f45524337323155524953746f726167653a2055524920736574206f66206e6f6e60008201527f6578697374656e7420746f6b656e000000000000000000000000000000000000602082015250565b6000613d51602e836127c5565b9150613d5c82613cf5565b604082019050919050565b60006020820190508181036000830152613d8081613d44565b9050919050565b600081519050919050565b600082825260208201905092915050565b6000613dae82613d87565b613db88185613d92565b9350613dc88185602086016127d6565b613dd181612809565b840191505092915050565b6000608082019050613df1600083018761290a565b613dfe602083018661290a565b613e0b6040830185612a20565b8181036060830152613e1d8184613da3565b905095945050505050565b600081519050613e378161272b565b92915050565b600060208284031215613e5357613e526126f5565b5b6000613e6184828501613e28565b91505092915050565b6000613e7582612875565b91507fffffffffffffffffffffffffffffffffffffffffffffffffffffffffffffffff821415613ea857613ea76139f2565b5b600182019050919050565b6000613ebe82612875565b9150613ec983612875565b925082613ed957613ed8613b05565b5b828206905092915050565b7f4e487b7100000000000000000000000000000000000000000000000000000000600052603260045260246000fd5b7f4552433732313a206d696e7420746f20746865207a65726f2061646472657373600082015250565b6000613f496020836127c5565b9150613f5482613f13565b602082019050919050565b60006020820190508181036000830152613f7881613f3c565b9050919050565b7f4552433732313a20746f6b656e20616c7265616479206d696e74656400000000600082015250565b6000613fb5601c836127c5565b9150613fc082613f7f565b602082019050919050565b60006020820190508181036000830152613fe481613fa8565b905091905056fea26469706673582212208a0fa94b765379a679fce49591ccb34c9ded2a378c622d84f415048f9334b47c64736f6c634300080b0033",
  "linkReferences": {},
  "deployedLinkReferences": {}
}